:020000040800F2
:10000000000002206D360008E1070008E307000841
:10001000E5070008E7070008E907000800000000FE
:10002000000000000000000000000000A1330008F4
:10003000EB0700080000000041340008ED0700084D
:10004000BD360008BD360008BD360008BD360008C4
:10005000BD360008BD360008BD360008BD360008B4
:10006000BD360008BD360008BD360008BD360008A4
:10007000BD360008BD360008BD360008BD36000894
:10008000BD360008BD360008BD360008BD36000884
:10009000BD360008BD360008BD360008BD36000874
:1000A000BD360008BD360008BD360008BD36000864
:1000B000BD360008BD360008BD360008BD36000854
:1000C000BD360008BD360008BD360008050800082A
:1000D000BD36000815080008BD360008BD3600080A
:1000E000BD360008BD360008BD360008BD36000824
:1000F000BD360008BD360008BD360008BD36000814
:10010000BD360008BD360008BD360008BD36000803
:10011000BD360008BD360008BD360008BD360008F3
:10012000BD360008BD360008BD360008BD360008E3
:10013000BD360008BD360008BD360008BD360008D3
:10014000BD360008BD360008BD360008BD360008C3
:10015000BD360008BD360008BD360008BD360008B3
:10016000BD360008BD360008BD360008BD360008A3
:10017000BD360008BD360008BD360008000000008E
:08018000BD360008BD36000881
:1001900010B5054C237833B9044B13B10448AFF3C1
:1001A00000800123237010BD10000020000000001B
:1001B0003437000808B5034B1BB103490348AFF3BC
:1001C000008008BD00000000140000203437000843
:1001D00053B94AB9002908BF00281CBF4FF0FF31AE
:1001E0004FF0FF3000F074B9ADF1080C6DE904CEAA
:1001F00000F006F8DDF804E0DDE9022304B0704702
:100200002DE9F047089D04468E46002B4DD18A42C9
:10021000944669D9B2FA82F252B101FA02F3C2F1FC
:10022000200120FA01F10CFA02FC41EA030E94408D
:100230004FEA1C48210CBEFBF8F61FFA8CF708FBAE
:1002400016E341EA034306FB07F199420AD91CEB86
:10025000030306F1FF3080F01F81994240F21C81B8
:10026000023E63445B1AA4B2B3FBF8F008FB103300
:1002700044EA034400FB07F7A7420AD91CEB040435
:1002800000F1FF3380F00A81A74240F20781644405
:10029000023840EA0640E41B00261DB1D44000238A
:1002A000C5E900433146BDE8F0878B4209D9002DEE
:1002B00000F0EF800026C5E9000130463146BDE878
:1002C000F087B3FA83F6002E4AD18B4202D38242E2
:1002D00000F2F980841A61EB030301209E46002D91
:1002E000E0D0C5E9004EDDE702B9FFDEB2FA82F2E6
:1002F000002A40F09280A1EB0C014FEA1C471FFA44
:100300008CFE0126200CB1FBF7F307FB131140EA2A
:1003100001410EFB03F0884208D91CEB010103F1F7
:10032000FF3802D2884200F2CB804346091AA4B2B9
:10033000B1FBF7F007FB101144EA01440EFB00FE8D
:10034000A64508D91CEB040400F1FF3102D2A645F2
:1003500000F2BB800846A4EB0E0440EA03409CE791
:10036000C6F12007B34022FA07FC4CEA030C20FA3E
:1003700007F401FA06F31C43F9404FEA1C4900FA5E
:1003800006F3B1FBF9F8200C1FFA8CFE09FB1811DB
:1003900040EA014108FB0EF0884202FA06F20BD94E
:1003A0001CEB010108F1FF3A80F08880884240F29E
:1003B0008580A8F102086144091AA4B2B1FBF9F0E2
:1003C00009FB101144EA014100FB0EFE8E4508D9DD
:1003D0001CEB010100F1FF346CD28E456AD9023862
:1003E000614440EA0840A0FB0294A1EB0E01A14247
:1003F000C846A64656D353D05DB1B3EB080261EBB5
:100400000E0101FA07F722FA06F3F1401F43C5E98E
:10041000007100263146BDE8F087C2F12003D840C4
:100420000CFA02FC21FA03F3914001434FEA1C4706
:100430001FFA8CFEB3FBF7F007FB10360B0C43EAF8
:10044000064300FB0EF69E4204FA02F408D91CEBA8
:10045000030300F1FF382FD29E422DD902386344A6
:100460009B1B89B2B3FBF7F607FB163341EA034146
:1004700006FB0EF38B4208D91CEB010106F1FF3895
:1004800016D28B4214D9023E6144C91A46EA00468C
:1004900038E72E46284605E70646E3E61846F8E61E
:1004A0004B45A9D2B9EB020864EB0C0E0138A3E767
:1004B0004646EAE7204694E74046D1E7D0467BE748
:1004C000023B614432E7304609E76444023842E7C0
:1004D000704700BF72B6FEE700B595B0302200212C
:1004E00008A803F01FF900230393049305930693D0
:1004F00007930193184A116C41F080511164126CFA
:1005000002F080520192019A0293144A116841F458
:1005100080411160126802F480420292029A022223
:10052000089201220B9210220C920E9308A800F060
:100530009BF968B90F23039300210491059106915B
:10054000079103A800F0DEFB20B915B05DF804FBAD
:10055000FFF7C0FFFFF7BEFF003802400070004009
:1005600008B500F04BFEFFF7B7FF00F00BF800F006
:100570007DF800F0D9F802F0EDFC00F067F802F029
:10058000FBFCFEE72DE9F04188B0002403940494BD
:100590000594069407940194204B1A6B42F00102D3
:1005A0001A631A6B02F001020192019A02941A6B0B
:1005B00042F002021A631B6B03F002030293029BD8
:1005C000174E2246C021304600F064FD154F2246EA
:1005D0000221384600F05EFD402303930125049577
:1005E0000595069403A9304600F062FC802303932E
:1005F00004954FF00208CDF81480069403A9304604
:1006000000F056FCCDF80C8004950595069403A9DE
:10061000384600F04DFC08B0BDE8F08100380240DB
:10062000000002400004024008B5012002F01EFD57
:100630008021024800F034FDF7E700BF00000240CF
:1006400070470020704770477047000008B5044AA3
:100650000021044802F0ACFC034B186008BD00BF49
:1006600050370008290600082C00002008B50D4866
:100670000D4B03604FF48273436000238360C360BB
:10068000036143614FF400728261C361036243629C
:1006900083620A23C36200F0DDFD00B908BDFFF7E5
:1006A00019FFFBE7900200200030014030B589B00F
:1006B0000023039304930593069307930268184B52
:1006C0009A4201D009B030BD0024019403F584336F
:1006D0005A6C42F480525A645A6C02F4805201926D
:1006E000019A02941A6B42F002021A631B6B03F028
:1006F00002030293029B38230393022304930323F0
:1007000006930525079503A9064800F0D1FB22466C
:100710002946232000F0F2FC232000F027FDD1E73A
:10072000003001400004024008B50B480B4B036049
:100730004FF4E133436000238360C36003610C2204
:1007400042618361C361036200F04AFF00B908BDE2
:10075000FFF7C0FEFBE700BFE802002000100140E9
:1007600010B588B000230393049305930693079371
:10077000026803F1804303F588339A4201D008B040
:1007800010BD0024019403F594335A6C42F010021A
:100790005A645A6C02F010020192019A02941A6B88
:1007A00042F001021A631B6B03F001030293029BE8
:1007B0004FF4E06303930223049303230693072378
:1007C000079303A9054800F073FB22460521252065
:1007D00000F094FC252000F0C9FCD0E700000240A6
:1007E000FEE7FEE7FEE7FEE7FEE7704708B500F02C
:1007F0001FFD02F02DF9012800D108BD02F052FEC4
:10080000FBE7000008B5024800F084FD08BD00BF0A
:100810009002002008B5024800F0EEFF08BD00BFBE
:10082000E802002000B583B0002200920D4B596C05
:1008300041F480415964596C01F480410091009960
:100840000192196C41F0805119641B6C03F08053C4
:100850000193019B0F216FF0010000F04FFC03B0EA
:100860005DF804FB00380240002800F0E08170B51C
:1008700082B00446036813F0010F3BD09F4B9B6886
:1008800003F00C03042B2CD09C4B9B6803F00C034F
:10089000082B21D06368B3F5803F4FD0B3F5A02F6C
:1008A00052D0964B1A6822F480321A601A6822F4E9
:1008B00080221A606368002B50D000F0C5FC05460A
:1008C0008E4B1B6813F4003F14D100F0BDFC401B9D
:1008D0006428F5D90320B1E1884B5B6813F4800FDD
:1008E000D8D0864B1B6813F4003F03D06368002BFD
:1008F00000F09F81236813F0020F54D07F4B9B6858
:1009000013F00C0F3ED07D4B9B6803F00C03082BBB
:1009100033D0E368002B68D0794B01221A6000F0D5
:1009200093FC0546754B1B6813F0020F54D100F081
:100930008BFC401B0228F5D903207FE16F4A136826
:1009400043F480331360B5E76C4B1A6842F480229D
:100950001A601A6842F480321A60ABE700F074FC47
:100960000546664B1B6813F4003FC3D000F06CFCD7
:10097000401B6428F5D9032060E1604B5B6813F4E9
:10098000800FC6D15D4B1B6813F0020F03D0E368E4
:10099000012B40F05081594A136823F0F803216974
:1009A00043EAC1031360236813F0080F42D0636960
:1009B0006BB3534B0122C3F8802E00F045FC054673
:1009C0004E4B5B6F13F0020F34D100F03DFC401B27
:1009D0000228F5D9032031E1484A136823F0F803CF
:1009E000216943EAC1031360DDE7454B00221A6029
:1009F00000F02AFC0546414B1B6813F0020FD2D0D1
:100A000000F022FC401B0228F5D9032016E13C4BE4
:100A10000022C3F8802E00F017FC0546374B5B6FB1
:100A200013F0020F06D000F00FFC401B0228F5D98E
:100A3000032003E1236813F0040F77D02F4B1B6CC6
:100A400013F0805F33D1002301932C4B1A6C42F0DA
:100A500080521A641B6C03F080530193019B0125A3
:100A6000284B1B6813F4807F23D0A368012B34D05C
:100A7000052B38D0214B1A6F22F001021A671A6F2A
:100A800022F004021A67A368002B3DD000F0DCFBC3
:100A900006461A4B1B6F13F0020F46D100F0D4FB31
:100AA000801B41F288339842F3D90320C6E0002529
:100AB000D6E7144A136843F48073136000F0C4FB54
:100AC0000646104B1B6813F4807FCED100F0BCFBB0
:100AD000801B0228F5D90320B0E0084A136F43F0C9
:100AE00001031367CFE7054B1A6F42F004021A6740
:100AF0001A6F42F001021A67C5E700BF00380240D2
:100B0000000047420070004000F09EFB0646524B3A
:100B10001B6F13F0020F08D000F096FB801B41F210
:100B200088339842F3D9032088E0EDB9A369002BFC
:100B300000F08380484A926802F00C02082A51D0E3
:100B4000022B17D0454B00221A6600F07DFB0446AD
:100B5000414B1B6813F0007F42D000F075FB001B77
:100B60000228F5D9032069E03B4A136C23F0805337
:100B70001364DBE7394B00221A6600F065FB05467B
:100B8000354B1B6813F0007F06D000F05DFB401B67
:100B90000228F5D9032051E0E369226A1343626A0F
:100BA00043EA8213A26A5208013A43EA0243E26A24
:100BB00043EA0263284A5360284B01221A6600F078
:100BC00043FB0446244B1B6813F0007F06D100F062
:100BD0003BFB001B0228F5D903202FE000202DE06D
:100BE00000202BE0012B2BD01B4B5B6803F4800112
:100BF000E269914226D103F03F02216A8A4223D161
:100C0000616A47F6C0721A40B2EB811F1ED103F42D
:100C10004031A26A5208013AB1EB024F18D103F0F9
:100C20007063E26AB3EB026F14D1002006E001208A
:100C30007047012002E0012000E0002002B070BDFA
:100C40000120FBE70120F9E70120F7E70120F5E7A4
:100C50000120F3E70120F1E700380240000047429D
:100C600008B5254B9B6803F00C03042B3FD0082BE1
:100C70003FD1214B5A6802F03F025B6813F4800FAA
:100C800012D01D4B5968C1F388111C480023A1FBE9
:100C90000001FFF79DFA184B5B68C3F30143013372
:100CA0005B00B0FBF3F025E0134B5968C1F3881CDF
:100CB0004FEA4C11B1EB0C006EEB0E0E4FEA8E13A7
:100CC00043EA90638101091A63EB0E03DB0043EAF8
:100CD0005173C90011EB0C0C43F10003990200237E
:100CE0004FEA8C2041EA9C51FFF772FAD3E70348A0
:100CF00000E0034808BD00BF0038024040787D0195
:100D00000024F400002800F09B8070B50D460446D6
:100D10004F4B1B6803F007038B4208D2CBB24C4AFF
:100D20001370136803F007038B4240F08B80236835
:100D300013F0020F17D013F0040F04D0454A936844
:100D400043F4E0539360236813F0080F04D0414A42
:100D5000936843F4604393603E4A936823F0F00342
:100D6000A1680B439360236813F0010F32D06368CE
:100D7000012B21D09A1E012A25D9364A126812F079
:100D8000020F61D033498A6822F0030213438B605B
:100D900000F05AFA06462F4B9B6803F00C0362687A
:100DA000B3EB820F16D000F04FFA801B41F288336C
:100DB0009842F0D9032042E0264A126812F4003F1C
:100DC000E0D101203BE0234A126812F0007FD9D124
:100DD000012034E01E4B1B6803F00703AB4207D928
:100DE000EAB21B4B1A701B6803F00703AB422DD10C
:100DF000236813F0040F06D0164A936823F4E053D7
:100E0000E1680B439360236813F0080F07D0114A81
:100E1000936823F46043216943EAC1039360FFF7B9
:100E20001FFF0C4B9B68C3F303130B4AD35CD840E2
:100E30000A4B18600A4B186800F0BAF9002070BD20
:100E4000012070470120FAE70120F8E70120F6E7CA
:100E5000003C0240003802407437000808000020BF
:100E600004000020014B1868704700BF08000020F4
:100E700008B5FFF7F7FF044B9B68C3F38223034ACF
:100E8000D35CD84008BD00BF00380240843700085A
:100E900008B5FFF7E7FF044B9B68C3F34233034AEF
:100EA000D35CD84008BD00BF00380240843700083A
:100EB00000230F2B00F2E48070B582B060E08568FB
:100EC0005E000324B44025EA0405CC68B4402C43FA
:100ED0008460456825EA02054C68C4F300129A4014
:100EE0002A4342605AE0DC08083450F8246003F0DA
:100EF000070295000F22AA4026EA020E0A69AA40BC
:100F000042EA0E0240F824205CE0072200E00022C2
:100F100002FA0EF22A4302345A4D45F824205A4A66
:100F200094686FEA0C0224EA0C054E6816F4801FE0
:100F300001D04CEA0405544CA560E46802EA0405BB
:100F40004E6816F4001F01D04CEA04054E4CE560D3
:100F5000646802EA04054E6816F4003F01D04CEACA
:100F60000405494C6560246822404D6815F4803FB3
:100F700001D04CEA0402444C226001330F2B7DD88F
:100F800001229A400C6804EA020C32EA0404F4D10B
:100F90004C6804F00304013C012C90D94A6802F02B
:100FA0000302032A09D0C4685D000322AA4024EA90
:100FB00002048A68AA402243C2604A6802F003021F
:100FC000022A90D004684FEA430E032202FA0EF27E
:100FD00024EA02044A6802F0030202FA0EF22243F3
:100FE00002604A6812F4403FC7D000220192274AAB
:100FF000546C44F480445464526C02F48042019274
:10100000019A9C08A51C1F4A52F8255003F00302C0
:101010004FEA820E0F2202FA0EF225EA02051C4A5E
:1010200090423FF474AF02F5806290421AD002F50C
:101030008062904218D002F58062904216D002F58C
:101040008062904214D002F58062904212D002F584
:101050008062904210D002F5806290423FF455AF1A
:10106000082255E7012253E7022251E703224FE706
:1010700004224DE705224BE7062249E702B070BD86
:10108000704700BF00380140003C0140003802407A
:10109000000002400AB18161704709048161704714
:1010A000436901EA030221EA030141EA0241816145
:1010B000704790F83530DBB2022B03D080234365B4
:1010C00001207047052380F835300268136823F04B
:1010D0000103136000207047074AD36823F4E063DC
:1010E0001B041B0C000200F4E060034343F0BF63E9
:1010F00043F40033D360704700ED00E000B5194BB6
:10110000DB68C3F30223C3F1070CBCF1040F28BF53
:101110004FF0040C03F1040EBEF1060F18D9033B87
:101120004FF0FF3E0EFA0CFC21EA0C0199400EFA3A
:1011300003F322EA0303194300280BDB0901C9B2B8
:1011400000F1604000F5614080F800135DF804FB99
:101150000023E5E700F00F000901C9B2024B195462
:10116000F4E700BF00ED00E014ED00E0002807DB2D
:1011700000F01F02400901239340024A42F8203048
:10118000704700BF00E100E00138B0F1807F0BD272
:101190004FF0E0235861054AF02182F82310002027
:1011A000986107221A6170470120704700ED00E046
:1011B00010B504460E4B18784FF47A73B3FBF0F376
:1011C0000C4A1068B0FBF3F0FFF7DEFF68B90F2C94
:1011D00001D901200AE0002221464FF0FF30FFF73D
:1011E0008DFF054B1C60002000E0012010BD00BFFA
:1011F00000000020080000200400002008B50B4B70
:101200001A6842F400721A601A6842F480621A6026
:101210001A6842F480721A600320FFF75DFF0F2006
:10122000FFF7C6FFFFF7FEFA002008BD003C0240B2
:10123000034A1168034B1B780B441360704700BFCF
:101240002C03002000000020014B1868704700BFED
:101250002C03002000285AD010B50446436A33B945
:101260004368B3F5827F05D00023C36102E0002309
:10127000036143610023A36294F85130002B40D0F6
:10128000022384F851302268136823F0400313606E
:10129000636803F48273A26802F404421343E268B1
:1012A00002F400621343226902F0020213436269EE
:1012B00002F001021343A26902F400721343E269CF
:1012C00002F038021343226A02F080021343A26A3A
:1012D00002F40052216813430B60638B03F0040394
:1012E000626A02F01002216813434B602268D369DE
:1012F00023F40063D36100206065012384F851303A
:1013000010BD84F850302046FFF7D0F9B8E701202F
:101310007047704730B585B00446026851689368DD
:10132000C3F3801013F0400F05D113F0010F02D06A
:1013300011F0400F69D113F0020F02D011F0800FAD
:1013400067D1C3F3401513F0200F03D110B913F484
:10135000807F61D011F0200F5ED078B194F85100F9
:10136000C0B203285AD0606D40F0040060650020D0
:101370000090D068009090680090009865B1606D12
:1013800040F00100606500200290906802901068B3
:1013900020F040001060029A13F4807F09D0636D42
:1013A00043F0080363650023039323689B6803935A
:1013B000039B636D002B2FD02268536823F0E0035A
:1013C0005360012384F8513011F0030F2ED02268AE
:1013D000536823F003035360E36C4BB1154A1A655D
:1013E000E06CFFF766FE18B1636D43F04003636580
:1013F000A36C8BB10F4A1A65A06CFFF75AFE58B167
:10140000636D43F04003636506E0236C2046984714
:1014100002E0636C2046984705B030BD002301937D
:10142000D368019393680193019BF5E72046FFF78A
:1014300070FFF1E73914000808B5806B0023C387FB
:10144000C386FFF766FF08BD0268D36823F4907374
:10145000D3600268536923F001035361012380F8CC
:101460003D30704790F83D30DBB2122B01D00220A6
:1014700070478368B3F5805F17D0436A5A1C426295
:101480001A7803685A60438D9BB2013B9BB2438537
:101490004BB90268D36823F08003D3600268D36835
:1014A00043F04003D360002070470369002BE4D170
:1014B000436A1B880268C3F308035360436A02331C
:1014C0004362E0E738B504460268D36823F00C03B2
:1014D000D36001680A6922F47C528369C0690343BE
:1014E000206A0343E0680343134343F400630B6142
:1014F0002168CA6822F4164222F00C02A36820690F
:10150000034360690343134343F40043CB60226801
:10151000536923F44073536123682F4A93422FD0B9
:1015200002F5806293422BD0FFF7A2FC0023021841
:1015300043EB0301121841F10001C90041EA527165
:10154000D200101841F10001626892185B41FEF769
:101550003FFE224DA5FB00325109642303FB11031A
:10156000DB003233A5FB03235B095A0002F4F87257
:1015700002EB011203F00703216813448B602AE099
:10158000FFF786FC0023021843EB0301121841F118
:101590000001C90041EA5271D200101841F1000166
:1015A000626892185B41FEF713FE0C4DA5FB0032FA
:1015B0005109642303FB1103DB003233A5FB032332
:1015C0005B095A0002F4F87202EB011203F0070300
:1015D000216813448B6038BD001001401F85EB511A
:1015E00020B310B5044690F83D30D3B1022384F8FF
:1015F0003D302046FFF766FF2268136923F48043DD
:1016000013612268536923F02A0353612268D36867
:1016100043F40053D36000202064012384F83D305C
:1016200010BD80F83C30FFF79BF8DFE701207047E2
:10163000704708B50168CA6822F04002CA600168B4
:101640004A6922F001024A61012280F83D20FFF739
:10165000EFFF002008BD704708B590F83D30DBB2C1
:10166000222B46D18368B3F5805F19D0C26AB3F5E7
:10167000805F02D00BBB0369FBB903685B68137022
:10168000C36A0133C362438E9BB2013B9BB2438664
:10169000438E9BB2BBB10368FF225A60002008BD95
:1016A0000269002AE2D1C26A03685B68C3F30803D7
:1016B0001380C36A0233C362E5E703685B6803F023
:1016C0007F031370DCE70268D36823F02003D36044
:1016D0000268D36823F48073D3600268536923F0EF
:1016E00001035361012380F83D30FFF7B4FF002070
:1016F000D5E70220D3E7704708B590F83D30DBB25C
:10170000322B75D1438D9BB2D3B103681A6812F0A6
:10171000800F15D08268B2F5805F35D0426A511CC7
:10172000416212785A60438D9BB2013B9BB2438564
:10173000438D9BB223B90268D36823F08003D36042
:10174000438E9BB2DBB103681A6812F0200F16D0EB
:101750008268B2F5805F23D0B2F5805F04D0002AA2
:101760002AD10269002A27D15A68C36A1A70C36A4B
:101770000133C362438E9BB2013B9BB24386438ECF
:101780009BB2FBB1002008BD0269002AC6D1426AA3
:101790001288C2F308025A60436A02334362C2E706
:1017A00001690029D8D1C26A5B68C3F308031380BA
:1017B000C36A0233C362DDE75B68C26A03F07F037A
:1017C0001370D4E70268D36823F02003D360026863
:1017D000D36823F48073D3600268536923F0010354
:1017E0005361012380F83D30FFF785FF0020CAE7F1
:1017F0000220C8E77047000010B50446026813686D
:10180000D168526913F00F0005D113F0200F02D0F8
:1018100011F0200F14D128B112F001021DD111F4E2
:10182000907F1AD113F0800F02D011F0800F7ED17B
:1018300013F0400F03D011F0400F40F0858010BD31
:1018400094F83D30DBB2222B03D02046FFF754FF43
:10185000F5E72046FFF700FFF1E713F0010F06D090
:1018600011F4807F03D0206C40F00100206413F05D
:10187000040F04D01AB1206C40F00200206413F071
:10188000020F04D01AB1206C40F00400206413F061
:10189000080F07D011F0200F00D11AB1226C42F0CE
:1018A00008022264226C002AC9D013F0200F0AD04B
:1018B00011F0200F07D094F83D30DBB2222B24D05A
:1018C0002046FFF719FF23685B6903F04003226C91
:1018D00012F0080F00D123B32046FFF7B5FD2368AF
:1018E0005A6912F0400F18D05A6922F040025A612A
:1018F000A36B73B1164A1A65A06BFFF7DAFB0028D9
:101900009DD0A06B036D984799E72046FFF7A4FE92
:10191000D9E72046FFF76EFF91E72046FFF76AFF01
:101920008DE72046FFF766FF0023236487E794F8DE
:101930003D30DBB2122B03D02046FFF7DDFE7EE701
:101940002046FFF78FFD7AE72046FFF772FE76E725
:101950005519000808B5806B002343864385FFF7BF
:1019600049FF08BD034AD2F8883043F47003C2F837
:101970008830704700ED00E000F1080343604FF04D
:10198000FF328260C360036100230360704700235D
:101990000361704743684B609A688A605160996040
:1019A0000861036801330360704730B40D68B5F116
:1019B000FF3F11D000F108031C465B681A68AA4279
:1019C000FAD963684B6099608C6061600861036854
:1019D0000133036030BC70470469F2E70369416872
:1019E00082688A60416851605A68824206D000224B
:1019F00002611A68013A1A601868704782685A6072
:101A0000F5E710B5044601F0DDFCA26BE36B9A42EA
:101A100004D0002401F0F8FC204610BD0124F9E7B1
:101A200010B5044601F0CEFCA36B23B9012401F0EC
:101A3000EBFC204610BD0024F9E770B504461546BE
:101A4000866B026C5AB903681BB100200136A6638D
:101A500070BD806801F00CF80023A360F6E76DB953
:101A6000406801F051FE226C636813446360A26811
:101A7000934219D3236863602846E7E7C06801F002
:101A800043FE226C5142E3689B1AE3602268934252
:101A900002D2A3680B44E360022D01D00020D5E7F9
:101AA00026B1013E0020D1E72846CFE70020CDE750
:101AB0000346026C6AB110B50846D9681144D96072
:101AC0009C68A14201D31968D960D96801F01CFE55
:101AD00010BD704738B5054601F074FC95F84540D7
:101AE00064B201E0013C64B2002C0ADD6B6A43B1D0
:101AF00005F1240000F012FF0028F3D000F0A2FF4F
:101B0000F0E7FF2385F8453001F07EFC01F05AFC38
:101B100095F8444064B201E0013C64B2002C0ADD57
:101B20002B6943B105F1100000F0F8FE0028F3D056
:101B300000F088FFF0E7FF2385F8443001F064FCF3
:101B400038BD38B5E0B10D46044601F03BFC2368D2
:101B5000E26B216C01FB0230A0600020A063636097
:101B6000013A02FB0133E360FF2384F8443084F838
:101B70004530FDB9236963B901F046FC012038BD49
:101B80004FF0500383F31188BFF36F8FBFF34F8F74
:101B9000FEE704F1100000F0C1FE0028ECD04FF089
:101BA000E0234FF08052C3F8042DBFF34F8FBFF3F3
:101BB0006F8FE1E704F11000FFF7DEFE04F124006F
:101BC000FFF7DAFED8E738B51D46049C0B4649B945
:101BD0002460E063236401212046FFF7B2FF84F80C
:101BE0004C5038BD2260F4E740B94FF0500383F306
:101BF0001188BFF36F8FBFF34F8FFEE710B584B02E
:101C00001C46844653B192B189B94FF0500383F317
:101C10001188BFF36F8FBFF34F8FFEE74FF0500374
:101C200083F31188BFF36F8FBFF34F8FFEE76AB165
:101C300050230393039B502B13D04FF0500383F397
:101C40001188BFF36F8FBFF34F8FFEE70029EFD0EE
:101C50004FF0500383F31188BFF36F8FBFF34F8FA3
:101C6000FEE7039B012384F8463000949DF818306A
:101C70006046FFF7A8FF204604B010BDF0B585B060
:101C8000019288B10F461D460446B1B1022D20D104
:101C9000E36B012B1DD04FF0500383F31188BFF38A
:101CA0006F8FBFF34F8FFEE74FF0500383F3118820
:101CB000BFF36F8FBFF34F8FFEE7036C002BE5D0B0
:101CC0004FF0500383F31188BFF36F8FBFF34F8F33
:101CD000FEE700F0BDFE064658B9019B002B48D038
:101CE0004FF0500383F31188BFF36F8FBFF34F8F13
:101CF000FEE700263DE02A4639462046FFF79DFED6
:101D0000636A7BB948B14FF0E0234FF08052C3F8CB
:101D1000042DBFF34F8FBFF36F8F01F075FB0120D0
:101D200005B0F0BD04F1240000F0F8FD0028F4D067
:101D30004FF0E0234FF08052C3F8042DBFF34F8FD4
:101D4000BFF36F8FE9E701F05FFB0020E8E702A82F
:101D500000F02AFE012619E0002384F8443021E037
:101D6000002384F8453023E02046FFF7B3FE00F05F
:101D700085FC01F027FBA26BE36B9A42BBD3022DDB
:101D8000B9D0019B002BDED0002EE0D001F03CFB4F
:101D900000F0DAFB01F016FB94F8442052B2B2F1E5
:101DA000FF3FD9D094F8452052B2B2F1FF3FD7D0CF
:101DB00001F02AFB01A902A800F002FED8B92046D2
:101DC000FFF71FFE0028CFD0019904F1100000F0AA
:101DD00071FD2046FFF77EFE00F050FC0028C8D1C0
:101DE0004FF0E0234FF08052C3F8042DBFF34F8F24
:101DF000BFF36F8FBDE72046FFF76CFE00F03EFC9F
:101E000000208DE72DE9F84390B10F4616461C4699
:101E10000546B1B1022C20D1EB6B012B1DD04FF048
:101E2000500383F31188BFF36F8FBFF34F8FFEE72B
:101E30004FF0500383F31188BFF36F8FBFF34F8FC1
:101E4000FEE7036C002BE5D04FF0500383F31188BD
:101E5000BFF36F8FBFF34F8FFEE701F0D9FBEFF3B6
:101E600011894FF0500383F31188BFF36F8FBFF3D5
:101E70004F8FAA6BEB6B9A4206D3022C04D0002042
:101E800089F31188BDE8F88395F845804FFA88F802
:101E9000AB6B224639462846FFF7CFFDB8F1FF3F2E
:101EA00006D008F101035BB285F845300120E7E771
:101EB0006B6A0BB90120E3E705F1240000F02EFD69
:101EC00018B126B101203060DAE70120D8E70120FF
:101ED000D6E7F0B585B0019290B10F460446C1B186
:101EE00000F0B6FD064600BB019B002B5ED04FF014
:101EF000500383F31188BFF36F8FBFF34F8FFEE75B
:101F00004FF0500383F31188BFF36F8FBFF34F8FF0
:101F1000FEE7036C002BE3D04FF0500383F31188EE
:101F2000BFF36F8FBFF34F8FFEE700263EE03946C9
:101F30002046FFF7BDFD013DA563236923B901F0EC
:101F400063FA012005B0F0BD04F1100000F0E6FCDA
:101F50000028F4D04FF0E0234FF08052C3F8042D56
:101F6000BFF34F8FBFF36F8FE9E701F04DFA002009
:101F7000E8E702A800F018FD012621E0002384F81C
:101F8000443029E0002384F845302BE02046FFF759
:101F9000A1FD00F073FB09E02046FFF79BFD00F078
:101FA0006DFB2046FFF73CFD00283FD101F00AFA07
:101FB000A56B002DBBD1019B002BD6D0002ED8D015
:101FC00001F022FA00F0C0FA01F0FCF994F8443074
:101FD0005BB2B3F1FF3FD1D094F845305BB2B3F1BF
:101FE000FF3FCFD001F010FA01A902A800F0E8FCF1
:101FF0000028D1D12046FFF713FD0028C6D0019953
:1020000004F1240000F056FC2046FFF763FD00F0C9
:1020100035FB0028CAD14FF0E0234FF08052C3F8BF
:10202000042DBFF34F8FBFF36F8FBFE7002089E709
:102030000023072B0CD8074A52F833200AB101338A
:10204000F7E7044A42F8331002EBC30358607047C5
:10205000704700BF3003002070B504460D46164699
:1020600001F0B0F994F844305BB2B3F1FF3F0DD00A
:1020700094F845305BB2B3F1FF3F0BD001F0C4F9E7
:10208000A36B5BB12046FFF725FD70BD002384F8EC
:102090004430EDE7002384F84530EFE73246294627
:1020A00004F1240000F01EFCECE70000084B1B6864
:1020B0001B6823B9074B4FF0FF321A607047044B7F
:1020C0001B68DB68DB685A68024B1A60704700BF08
:1020D00074030020240800202DE9F04780460D46B7
:1020E00017469946089EDDF824A00A9C9200A52177
:1020F000206B01F017FB236B07F18042013A03EBE1
:10210000820727F00707002D37D04FF0000CBCF1F5
:102110000F0F0BD815F80C2004EB0C0383F83420B8
:1021200015F80C3013B10CF1010CF0E7002384F822
:102130004330372E00D93726E662E6640025256550
:10214000201DFFF724FC04F11800FFF720FC246198
:10215000C6F13806A66164626565A56584F85C50C1
:102160004A464146384601F005F92060BAF1000FB1
:1021700001D0CAF80040BDE8F087002384F834306D
:10218000D7E7000038B5002407E004EB8402930091
:102190000E481844FFF7F0FB0134372CF5D90C4DED
:1021A0002846FFF7E9FB0B4C2046FFF7E5FB0A4802
:1021B000FFF7E2FB0948FFF7DFFB0948FFF7DCFB0D
:1021C000084B1D60084B1C6038BD00BF7C0300201D
:1021D000F80700200C080020300800205C080020D0
:1021E00048080020740300207803002010B504463E
:1021F00001F0E8F8224A136801331360214B1B6891
:102200005BB1214B1B686BB91E4B1B68DA6AE36A32
:102210009A4207D81B4B1C6004E01A4B1C601368E1
:10222000012B29D0194A1368013313606364E06AF3
:10223000174B1B68984201D9154B186000EB8000C2
:10224000211D144B03EB8000FFF7A4FB01F0DCF829
:102250000D4B1B687BB10B4B1B68DA6AE36A9A4231
:1022600009D24FF0E0234FF08052C3F8042DBFF3A2
:102270004F8FBFF36F8F10BDFFF784FFD2E700BF12
:10228000E40700207003002044080020F00700202D
:10229000F40700207C03002010B5044690F85D3060
:1022A00063B1012B11D0022B0ED04FF0500383F3FA
:1022B0001188BFF36F8FBFF34F8FFEE7006B00F005
:1022C000DDFF204600F0DAFF10BD00F0D7FFFBE78E
:1022D0000F4B1B68D3B110B501F074F80D4BDB68E0
:1022E000DC68201DFFF77AFB0B4A1368013B136083
:1022F000074A1368013B136001F086F82046FFF798
:10230000CBFF034B1B68002BE6D110BD704700BF0D
:10231000E80700205C080020E407002070B50446B0
:102320000D46174B1E68174B18680430FFF756FB15
:10233000B4F1FF3F0DD03444124B1B685C60A642E1
:1023400010D9114B18680F4B19680431FFF72DFB9A
:1023500070BD002DEFD00B4B196804310B48FFF70F
:1023600019FBF5E70A4B1868064B19680431FFF7AB
:102370001CFB084B1B68A342EAD9064B1C60E7E72D
:102380007008002070030020780300204808002017
:10239000740300202408002008B50BE04FF0E02370
:1023A0004FF08052C3F8042DBFF34F8FBFF36F8FF0
:1023B000FEF749F9FFF78CFF024B1B68012BEDD8A4
:1023C000F6E700BF7C03002030B587B00B9C7CB1E2
:1023D0000C9DB5B160250495049D602D1AD04FF079
:1023E000500383F31188BFF36F8FBFF34F8FFEE766
:1023F0004FF0500383F31188BFF36F8FBFF34F8FFC
:10240000FEE74FF0500383F31188BFF36F8FBFF3E4
:102410004F8FFEE7049D0C9D2C63022485F85D40E0
:1024200000240394029505AC01940A9C0094FFF7E4
:1024300053FE0C98FFF7DAFE059807B030BD2DE982
:10244000F04385B00746884614461E46900000F0CB
:1024500097FE00B38146602000F092FE0546B0B1C1
:10246000C0F83090E5B1002385F85D300393029504
:102470000D9B01930C9B0093334622464146384600
:10248000FFF72AFE2846FFF7B1FE012005E0484687
:1024900000F0F4FEE6E74FF0FF3005B0BDE8F08352
:1024A0004FF0FF30F9E7000010B588B00024059424
:1024B000069407AA06A905A800F0E6FD059B02936D
:1024C000069B019300942346079A19491948FFF780
:1024D0007BFF194B186040B100F07EFB012806D04D
:1024E000B0F1FF3F1AD008B010BD0020F6E74FF062
:1024F000500383F31188BFF36F8FBFF34F8F0F4BE0
:102500004FF0FF321A600E4B01221A600D4B002271
:102510001A60FEF795F800F0EFFFE4E74FF0500384
:1025200083F31188BFF36F8FBFF34F8FFEE700BFB8
:102530008C37000899230008200800202408002078
:102540004408002070080020024A13680133136019
:10255000704700BFEC070020014B1868704700BFB0
:1025600070080020F8B53A4B1B68002B69D1394B35
:102570001D6801351D60C5B9374B1B681B6843B129
:102580004FF0500383F31188BFF36F8FBFF34F8F6A
:10259000FEE7314A1168314B186810601960304A03
:1025A000136801331360FFF781FD2E4B1B68AB42AC
:1025B0003DD900272C4B1B68DB6A03EB83039A0091
:1025C0002A4B9B58012B00D90127294B1B68002B54
:1025D0003CD001273AE001271F4B1B681B6843B31F
:1025E0001D4B1B68DB68DC6863689D4226D3261D93
:1025F0003046FFF7F3F9A36A1BB104F11800FFF7A7
:10260000EDF9E36A1B4A1268934201D9194A136033
:1026100003EB83039A00314614481044FFF7BAF9DC
:10262000E26A114B1B68DB6A9A42D4D2D4E70027D6
:10263000D2E70C4B4FF0FF321A60BBE7094A136038
:10264000B8E70D4A13680133136000273846F8BD18
:10265000EC0700207008002074030020780300209D
:102660002808002024080020700300207C0300209C
:1026700074080020F40700202C08002038B5354BE2
:102680001B6843B94FF0500383F31188BFF36F8F7A
:10269000BFF34F8FFEE700F095FE2E4B1A68013A0C
:1026A0001A601B68002B4FD12B4B1B680BB9002401
:1026B0004BE00024294B1B681BB3284BDB68DC680C
:1026C00004F11800FFF78AF9251D2846FFF786F95F
:1026D000E06A234B1B68984201D9214B186000EB3C
:1026E000800029461F4B03EB8000FFF753F9E26A95
:1026F0001D4B1B68DB6A9A42DCD31C4B01221A601B
:10270000D8E70CB1FFF7D2FC194B1C6884B9174B02
:102710001C68D4B14FF0E0234FF08052C3F8042D71
:10272000BFF34F8FBFF36F8F01240EE0013C07D042
:10273000FFF718FF0028F9D00C4B01221A60F5E7CB
:102740000B4B00221A60E2E7002400F05DFE2046F9
:1027500038BD00BFEC070020E4070020300800204F
:10276000F40700207C030020700300207408002080
:102770002C08002010B5A8B10446104B1B6843B1CB
:102780004FF0500383F31188BFF36F8FBFF34F8F68
:10279000FEE7FFF7D9FE00212046FFF7BFFDFFF758
:1027A0006DFF48B94FF0E0234FF08052C3F8042D7D
:1027B000BFF34F8FBFF36F8F10BD00BFEC0700203A
:1027C00008B5354B1B681BB1344B01221A6008BD9C
:1027D000324B00221A60FDF734FF314B1860314B49
:1027E0001B68984205D9304A1168C31A4A6D1344D0
:1027F0004B652C4B18602C4B1B681B6B1A68B2F195
:10280000A53F03D15A68B2F1A53F10D0264B1868F6
:1028100019683431FDF718FF244B1B6803EB830262
:10282000920023498A58A2B953B1013BF6E79A684E
:10283000B2F1A53FEAD1DB68B3F1A53FE6D1EBE702
:102840004FF0500383F31188BFF36F8FBFF34F8FA7
:10285000FEE703EB830201EB8202506840685060A0
:1028600003EB8302920008320A4490420BD003EB40
:1028700083010F4A02EB81025268D1680A4A116053
:102880000A4A1360A3E7406803EB8301084A02EB9E
:1028900081025060EBE700BFEC07002074080020C5
:1028A000E0070020DC07002070030020F407002070
:1028B0007C03002058B110B50C46094A1168183144
:1028C000FFF773F801212046FFF728FD10BD4FF0F8
:1028D000500383F31188BFF36F8FBFF34F8FFEE771
:1028E0007003002038B570B10D4614460A4A1168CD
:1028F0001831FFF74FF80CB14FF0FF35214628464D
:10290000FFF70CFD38BD4FF0500383F31188BFF380
:102910006F8FBFF34F8FFEE77003002038B5C36899
:10292000DC6824B304F118052846FFF757F8184B64
:102930001B682BBB251D2846FFF750F8E06A154B96
:102940001B68984201D9134B186000EB80002946A0
:10295000114B03EB8000FFF71DF8E26A0F4B1B6879
:10296000DB6A9A4211D901200D4B186038BD4FF037
:10297000500383F31188BFF36F8FBFF34F8FFEE7D0
:1029800029460848FFF706F8E7E70020EEE700BF12
:10299000EC070020F40700207C03002070030020D7
:1029A0007408002030080020034B1B680360034BB1
:1029B0001B684360704700BF280800207008002093
:1029C000F8B5C8B10C460546F9B100F0FBFC1B4B4D
:1029D00019686B68C81A2268B2F1FF3F26D0184EFA
:1029E00036682F68B74201D08B4224D9824215D86D
:1029F0000023236001241AE04FF0500383F3118871
:102A0000BFF36F8FBFF34F8FFEE74FF0500383F399
:102A10001188BFF36F8FBFF34F8FFEE75B1A13442C
:102A200023602846FFF7C0FF002400E0002400F0E8
:102A3000EBFC2046F8BD0124F9E700BF7008002038
:102A400028080020014B01221A60704774080020FA
:102A5000054B1B6833B1054B1B680BB10020704759
:102A6000022070470120704744080020EC07002036
:102A700000283BD038B504461E4B1B68834208D063
:102A80004FF0500383F31188BFF36F8FBFF34F8F65
:102A9000FEE7036D43B94FF0500383F31188BFF392
:102AA0006F8FBFF34F8FFEE7013B0365C16AC26CB6
:102AB00091421DD00BB1002038BD051D2846FEF700
:102AC0008DFFE06CE062C0F13803A3610A4B1B6824
:102AD000984201D9084B186000EB80002946074B4B
:102AE00003EB8000FEF756FF0120E5E7002070476A
:102AF0000020E1E770030020F40700207C030020A1
:102B0000064B1A6813682BB90123036023B9D368F5
:102B1000186870470023F8E7002070477808002005
:102B200008B54160006191420CD8D21A83699A427B
:102B300001D3012008BD011D094B1868FEF735FFC0
:102B40000020F7E79A4201D2994206D2011D054BB7
:102B50001868FEF72AFF0020ECE70120EAE700BF33
:102B60007C0800207808002030B583B000F02AFCF3
:102B7000114B1B681BB100F047FC03B030BD0F4D7B
:102B80002846FEF7F9FE0E4C2046FEF7F5FE0D4BEB
:102B90001D600D4B1C60002300930C4B0C4A102150
:102BA0000A20FFF721F8044B18600028E3D00949F8
:102BB000FFF73EFADFE700BF9C0900202009002054
:102BC00034090020780800207C0800204C090020EF
:102BD000800800209437000810B588B0FFF7C4FFC4
:102BE000124B1B68CBB100240594069407AA06A9D2
:102BF00005A800F055FA059B0293069B019302235A
:102C000000932346079A0A490A48FFF7DDFB0A4B5F
:102C1000186010B1012008B010BD4FF0500383F3CD
:102C20001188BFF36F8FBFF34F8FFEE79C09002021
:102C30009C3700083D2F0008A0090020B8B19C4631
:102C400003461848006858B300B585B0009101925A
:102C5000029305291CDCFFF7FBFE022810D000239D
:102C60001A4669460F480068FFF708F815E04FF06C
:102C7000500383F31188BFF36F8FBFF34F8FFEE7CD
:102C80000023069A694607480068FEF7F7FF04E04C
:102C9000002362466946FFF7B5F805B05DF804FB0E
:102CA000002070479C09002070B582B01B4B1B6848
:102CB0001A6862B3DB681E68DC68251D2846FEF7CB
:102CC0008DFE236A2046984794F8283013F0040FAD
:102CD000ECD0A36933449E4207D263602461294645
:102CE0000E4B1868FEF761FEE0E7002100910B46ED
:102CF00032462046FFF7A2FF0028D7D14FF05003FD
:102D000083F31188BFF36F8FBFF34F8FFEE7044A41
:102D1000106802490860136002B070BD7808002096
:102D20007C08002038B50546FFF716FC0446074B23
:102D30001B68834205D800232B60044B1C6020468F
:102D400038BDFFF7B1FF01232B60F6E748090020EB
:102D500070B582B006460D4617490968C968CC6847
:102D6000201DFEF73BFE94F828C01CF0040F08D18C
:102D70002CF0010C84F828C0236A2046984702B042
:102D800070BDA16933462A4631442046FFF7C8FE8C
:102D90000028F1D0002100910B4632462046FFF773
:102DA0004DFF0028E8D14FF0500383F31188BFF3A3
:102DB0006F8FBFF34F8FFEE77808002070B582B0A9
:102DC00006460C46FFF7C0FB01A8FFF7ABFF019BCF
:102DD00033BB05460CB9B04219D224B1124A12686D
:102DE0001268DAB901242246711B104B1868FFF7EC
:102DF00033F9FFF743FCA8B94FF0E0234FF08052BE
:102E0000C3F8042DBFF34F8FBFF36F8F0AE0FFF7B6
:102E100035FC29463046FFF79BFF03E01C46E2E7FE
:102E2000FFF72CFC02B070BD7C0800209C0900203C
:102E300010B588B002E0049B002B0FDA002204A931
:102E40003D4B1868FFF745F8002873D0049B002B12
:102E5000F1DA07990698059B9847ECE7069C6369A9
:102E600013B1201DFEF7BAFD03A8FFF75BFF049B1B
:102E7000092BE3D8DFE803F00505053037500505D9
:102E8000303794F8283043F0010384F82830059B4C
:102E9000A169024619442046FFF742FE0028CDD022
:102EA000236A2046984794F8283013F0040FC5D0C1
:102EB000A269002100910B46059802442046FFF7C5
:102EC000BDFE0028BAD14FF0500383F31188BFF341
:102ED0006F8FBFF34F8FFEE794F8283023F0010384
:102EE00084F82830AAE794F8283043F0010384F8E6
:102EF00028300599A16131B10346024601442046BC
:102F0000FFF70EFE9AE74FF0500383F31188BFF3EB
:102F10006F8FBFF34F8FFEE794F8283013F0020F46
:102F200004D023F0010384F8283087E7204600F01E
:102F3000A5F983E708B010BD9C09002000B583B057
:102F400001A8FFF7DDFD0199FFF738FFFFF770FFDC
:102F5000F6E70000EFF305832BB9064B186828B994
:102F600001221A6070476FF0050070474FF0FF3084
:102F7000704700BF040C0020EFF3058373B90A4BC0
:102F80001B68012B0DD110B50024084BDC77064BD4
:102F900002221A60FFF788FA204610BD6FF0050084
:102FA00070474FF0FF307047040C002000ED00E048
:102FB000F0B587B000240594EFF3058474BB68B3C3
:102FC00022B31568936903B918235C1E372C49D8BE
:102FD000546814F0010F47D156696EB14FEA960C50
:102FE00094682CB1D7685F2F02D9176907B1C6B9A9
:102FF0002CB14FF0FF340EE04FF0800CF0E7D468B6
:103000008CB9146994B14FF0FF3404E015460024E4
:1030100018234FF0800C012C0AD0ACB1059807B0F2
:10302000F0BD0124F7E74FF0FF34F4E70024F2E7A6
:10303000146992680292019400930B4662462946F5
:10304000FFF7C2F90590E9E705AA019200930B4644
:103050001FFA8CF22946FFF7F2F90128DED000238F
:103060000593DBE70020DAE70020D8E708B5EFF3A7
:10307000058333B908B9002008BDFFF77BFB0020AA
:10308000FAE76FF00500F7E7034B0360034B0B60B3
:1030900080231360704700BFA40B0020A409002008
:1030A000034B0360034B0B604FF480731360704756
:1030B00008100020080C0020124A12F0070F1ED042
:1030C000D11D21F00701C1F5705313440A460E4883
:1030D0000260002141601344083B23F007030B48C2
:1030E000036059601960991A51601360084B1960A8
:1030F000084B1960084B4FF000421A6070474FF4BC
:103100007053E4E76C100020804C00206810002011
:10311000744C0020704C00206C4C0020164B1A465A
:103120001B688342FBD3516802EB010C844509D034
:10313000416800EB010C634509D00360904219D04F
:10314000106070474068014451601046F0E710B4C9
:103150000A4C2468A3420BD05B6819444160136891
:103160001B680360904200D010605DF8044B70470C
:103170000460F7E7704700BF804C00206810002013
:1031800070B50546FFF7E0F9364B1B68A3B1364B27
:103190001B681D424ED135B1083515F0070F02D01E
:1031A00025F007050835002D46D0304B1B68AB4293
:1031B00051D32F4A146804E0FFF77EFFE7E7224669
:1031C0001C466368AB4202D22368002BF7D1254B23
:1031D0001B68A34241D016680836236813606368F1
:1031E0005B1B102B10D9601910F0070F08D04FF09F
:1031F000500383F31188BFF36F8FBFF34F8FFEE748
:1032000043606560FFF78AFF626818490B689B1A84
:103210000B60184909688B4201D216490B60124BAA
:103220001B681343636000232360134A1368013350
:10323000136002E0002600E00026FFF71FFA16F0F8
:10324000070F0CD04FF0500383F31188BFF36F8F3B
:10325000BFF34F8FFEE70026EFE70026EDE730468D
:1032600070BD00BF681000206C4C0020704C002026
:10327000804C0020744C0020784C0020002834D072
:1032800038B50446A0F1080550F8043C174A126806
:10329000134208D14FF0500383F31188BFF36F8FAF
:1032A000BFF34F8FFEE750F8081C41B14FF05003B9
:1032B00083F31188BFF36F8FBFF34F8FFEE723EACD
:1032C000020340F8043CFFF73FF954F8041C084A95
:1032D00013680B4413602846FFF720FF054A136864
:1032E00001331360FFF7CAF938BD70476C4C0020FA
:1032F000704C00207C4C002082B0002301930D4BC9
:103300001B68B3F1FF3F08D04FF0500383F31188DF
:10331000BFF36F8FBFF34F8FFEE74FF0500383F380
:103320001188BFF36F8FBFF34F8F019B002BFCD031
:1033300002B070470C00002008480068006880F365
:1033400008884FF0000080F3148862B661B6BFF3BE
:103350004F8FBFF36F8F00DF00BF000008ED00E06C
:10336000DFF80C00016841F4700101607047000053
:1033700088ED00E04FF0807340F8043C21F001013B
:1033800040F8081C054B40F80C3C40F8202C6FF02E
:10339000020340F8243C4438704700BFF93200086B
:1033A000074B19680868B0E8F04F80F30988BFF34D
:1033B0006F8F4FF0000080F311887047AFF30080EB
:1033C000700300204FF0500383F31188BFF36F8F19
:1033D000BFF34F8F0B4A136801331360012B00D0EA
:1033E00070474FF0E023D3F8043D13F0FF0FF7D000
:1033F0004FF0500383F31188BFF36F8FBFF34F8FEC
:10340000FEE700BF0C000020094B1B6843B94FF0DA
:10341000500383F31188BFF36F8FBFF34F8FFEE725
:10342000013B034A13600BB983F31188704700BF57
:103430000C00002000000000000000000000000060
:10344000EFF30980BFF36F8F154B1A681EF0100F52
:1034500008BF20ED108A20E9F04F10602DE9090027
:103460004FF0500080F31188BFF34F8FBFF36F8F81
:10347000FFF7A6F94FF0000080F3118809BC196826
:103480000868B0E8F04F1EF0100F08BFB0EC108ACB
:1034900080F30988BFF36F8F704700BFAFF30080E0
:1034A0007003002008B54FF0500383F31188BFF379
:1034B0006F8FBFF34F8FFFF755F828B14FF0E02320
:1034C0004FF08052C3F8042D002383F3118808BD08
:1034D0004FF0E022002313619361054B1B680549FF
:1034E000A1FB03139B09013B536107231361704741
:1034F00008000020D34D62104FF0E023D3F8002DD8
:103500003D4B9A421CD04FF0E023D3F8002D3B4BAB
:103510009A421ED030B583B0394B1A78D2B201929C
:10352000FF221A701B78DBB28DF803309DF8033050
:1035300003F05003334A1370334B07221A601BE029
:103540004FF0500383F31188BFF36F8FBFF34F8F9A
:10355000FEE74FF0500383F31188BFF36F8FBFF383
:103560004F8FFEE7284A1368013B13609DF8033034
:103570005B00DBB28DF803309DF8033013F0800F51
:10358000F0D1214B1B68032B08D04FF0500383F37D
:103590001188BFF36F8FBFF34F8FFEE71B021A4AEC
:1035A000136003F4E0631360019BDBB2144A1370F1
:1035B0004FF0E024D4F8203D43F47003C4F8203DDC
:1035C000D4F8203D43F07043C4F8203DFFF780FF5E
:1035D00000250E4B1D60FFF7C3FED4F8343F43F0C7
:1035E0004043C4F8343FFFF7A7FEFFF7E9F8FFF7C1
:1035F00083FE284603B030BD71C20F4170C20F4137
:1036000000E400E0884C00208C4C00200C000020DE
:10361000EFF305830F2B0FD9114A9B5CDBB2114AE4
:1036200012789A4208D94FF0500383F31188BFF300
:103630006F8FBFF34F8FFEE74FF0E023D3F80C3DC1
:1036400003F4E063084A1268934208D94FF050032C
:1036500083F31188BFF36F8FBFF34F8FFEE770477F
:10366000F0E300E0884C00208C4C0020DFF834D0E0
:103670000D480E490E4A002302E0D458C4500433CA
:10368000C4188C42F9D30B4A0B4C002301E01360A1
:103690000432A242FBD3FEF765F900F011F8FCF703
:1036A0005FFF704700000220000000201000002093
:1036B000B437000810000020904C0020FEE7000006
:1036C00070B50D4D0D4C641BA4100026A64209D107
:1036D0000B4D0C4C00F02EF8641BA4100026A642E3
:1036E00005D170BD55F8043B98470136EEE755F813
:1036F000043B98470136F2E7AC370008AC370008C6
:10370000AC370008B03700080A44914200F1FF339B
:1037100000D1704710B511F8014B03F8014F9142E9
:10372000F9D110BD02440346934200D1704703F81B
:10373000011BF9E7F8B500BFF8BC08BC9E4670470E
:0C374000F8B500BFF8BC08BC9E467047FE
:10374C004C6564004C37000800000000300200207B
:10375C006000000030000020000200001800000093
:10376C00000000000000000000000000000000004D
:10377C00010203040607080900000000010203040B
:10378C0049444C4500000000546D7251000000008B
:08379C00546D722053766300A6
:0837A4005CCAFF7F0100000078
:0437AC00B50100085B
:0437B000910100087B
:1037B40001000000100000000024F400AAAAAAAA34
:040000050800366D4C
:00000001FF
